{
  "contractName": "DispatchContract",
  "abi": [
    {
      "inputs": [],
      "name": "lotNumber",
      "outputs": [
        {
          "internalType": "int256",
          "name": "",
          "type": "int256"
        }
      ],
      "stateMutability": "view",
      "type": "function",
      "constant": true
    },
    {
      "inputs": [],
      "name": "uniqueID",
      "outputs": [
        {
          "internalType": "string",
          "name": "",
          "type": "string"
        }
      ],
      "stateMutability": "view",
      "type": "function",
      "constant": true
    },
    {
      "inputs": [
        {
          "internalType": "string",
          "name": "_uniqueID",
          "type": "string"
        },
        {
          "internalType": "int256",
          "name": "_lotNumber",
          "type": "int256"
        }
      ],
      "name": "perform_transactions",
      "outputs": [],
      "stateMutability": "nonpayable",
      "type": "function"
    }
  ],
  "bytecode": "0x608060405234801561001057600080fd5b5061054e806100206000396000f3fe608060405234801561001057600080fd5b50600436106100415760003560e01c806380051956146100465780638bc533e9146100625780639597fe9f14610080575b600080fd5b610060600480360381019061005b9190610387565b61009e565b005b61006a6100c0565b604051610077919061046b565b60405180910390f35b61008861014e565b604051610095919061049c565b60405180910390f35b81600090805190602001906100b4929190610154565b50806001819055505050565b600080546100cd906104e6565b80601f01602080910402602001604051908101604052809291908181526020018280546100f9906104e6565b80156101465780601f1061011b57610100808354040283529160200191610146565b820191906000526020600020905b81548152906001019060200180831161012957829003601f168201915b505050505081565b60015481565b828054610160906104e6565b90600052602060002090601f01602090048101928261018257600085556101c9565b82601f1061019b57805160ff19168380011785556101c9565b828001600101855582156101c9579182015b828111156101c85782518255916020019190600101906101ad565b5b5090506101d691906101da565b5090565b5b808211156101f35760008160009055506001016101db565b5090565b6000604051905090565b600080fd5b600080fd5b600080fd5b600080fd5b6000601f19601f8301169050919050565b7f4e487b7100000000000000000000000000000000000000000000000000000000600052604160045260246000fd5b61025e82610215565b810181811067ffffffffffffffff8211171561027d5761027c610226565b5b80604052505050565b60006102906101f7565b905061029c8282610255565b919050565b600067ffffffffffffffff8211156102bc576102bb610226565b5b6102c582610215565b9050602081019050919050565b82818337600083830152505050565b60006102f46102ef846102a1565b610286565b9050828152602081018484840111156103105761030f610210565b5b61031b8482856102d2565b509392505050565b600082601f8301126103385761033761020b565b5b81356103488482602086016102e1565b91505092915050565b6000819050919050565b61036481610351565b811461036f57600080fd5b50565b6000813590506103818161035b565b92915050565b6000806040838503121561039e5761039d610201565b5b600083013567ffffffffffffffff8111156103bc576103bb610206565b5b6103c885828601610323565b92505060206103d985828601610372565b9150509250929050565b600081519050919050565b600082825260208201905092915050565b60005b8381101561041d578082015181840152602081019050610402565b8381111561042c576000848401525b50505050565b600061043d826103e3565b61044781856103ee565b93506104578185602086016103ff565b61046081610215565b840191505092915050565b600060208201905081810360008301526104858184610432565b905092915050565b61049681610351565b82525050565b60006020820190506104b1600083018461048d565b92915050565b7f4e487b7100000000000000000000000000000000000000000000000000000000600052602260045260246000fd5b600060028204905060018216806104fe57607f821691505b60208210811415610512576105116104b7565b5b5091905056fea2646970667358221220b5e1aef4c3ca68a6cf1cf7b129392847c12c1f872af21b7f85bbaea7d46bb32364736f6c634300080a0033",
  "immutableReferences": {},
  "source": "pragma solidity >=0.4.22 <0.9.0;\r\n    contract DispatchContract {\r\n    string public uniqueID;\r\n\tint public lotNumber;\r\n\t\r\n    \r\n    function perform_transactions(string memory _uniqueID, int _lotNumber) public{\r\n       uniqueID = _uniqueID;\r\n\t\tlotNumber = _lotNumber;\r\n\t\t\r\n    }\r\n        \r\n}\r\n",
  "sourcePath": "D:\\MAJORCODE\\ProductCounterfeiting\\ProductCounterfeiting-Truffle\\contracts\\DispatchContract.sol",
  "compiler": {
    "name": "solc",
    "version": "0.8.10+commit.fc410830.Emscripten.clang"
  },
  "schemaVersion": "3.4.16",
  "updatedAt": "2025-05-12T08:42:58.427Z",
  "networkType": "ethereum",
  "devdoc": {
    "kind": "dev",
    "methods": {},
    "version": 1
  },
  "userdoc": {
    "kind": "user",
    "methods": {},
    "version": 1
  }
}