{
  "contractName": "ManufacturerContract",
  "abi": [
    {
      "inputs": [],
      "name": "perform_transactions",
      "outputs": [],
      "stateMutability": "nonpayable",
      "type": "function"
    }
  ],
  "bytecode": "0x6080604052348015600f57600080fd5b50606d80601d6000396000f3fe6080604052348015600f57600080fd5b506004361060285760003560e01c8063ff0c51ba14602d575b600080fd5b60336035565b005b56fea264697066735822122060df4ad9084160de07b68757f82f635b9315e08214d77bec4e50183d4d649c7c64736f6c634300080a0033",
  "immutableReferences": {},
  "source": "pragma solidity >=0.4.22 <0.9.0;\r\n    contract ManufacturerContract {\r\n    \r\n    \r\n    function perform_transactions() public{\r\n       \r\n    }\r\n        \r\n}\r\n",
  "sourcePath": "D:\\MAJORCODE\\ProductCounterfeiting\\ProductCounterfeiting-Truffle\\contracts\\ManufacturerContract.sol",
  "compiler": {
    "name": "solc",
    "version": "0.8.10+commit.fc410830.Emscripten.clang"
  },
  "schemaVersion": "3.4.16",
  "updatedAt": "2025-05-12T08:42:58.851Z",
  "networkType": "ethereum",
  "devdoc": {
    "kind": "dev",
    "methods": {},
    "version": 1
  },
  "userdoc": {
    "kind": "user",
    "methods": {},
    "version": 1
  }
}