{
  "contractName": "ProductionReceiptsContract",
  "abi": [
    {
      "inputs": [],
      "name": "lotNumber",
      "outputs": [
        {
          "internalType": "int256",
          "name": "",
          "type": "int256"
        }
      ],
      "stateMutability": "view",
      "type": "function",
      "constant": true
    },
    {
      "inputs": [],
      "name": "productID",
      "outputs": [
        {
          "internalType": "string",
          "name": "",
          "type": "string"
        }
      ],
      "stateMutability": "view",
      "type": "function",
      "constant": true
    },
    {
      "inputs": [],
      "name": "uniqueID",
      "outputs": [
        {
          "internalType": "string",
          "name": "",
          "type": "string"
        }
      ],
      "stateMutability": "view",
      "type": "function",
      "constant": true
    },
    {
      "inputs": [
        {
          "internalType": "string",
          "name": "_uniqueID",
          "type": "string"
        },
        {
          "internalType": "string",
          "name": "_productID",
          "type": "string"
        },
        {
          "internalType": "int256",
          "name": "_lotNumber",
          "type": "int256"
        }
      ],
      "name": "perform_transactions",
      "outputs": [],
      "stateMutability": "nonpayable",
      "type": "function"
    }
  ],
  "bytecode": "0x608060405234801561001057600080fd5b5061064c806100206000396000f3fe608060405234801561001057600080fd5b506004361061004c5760003560e01c80638bc533e9146100515780639597fe9f1461006f578063c85842d91461008d578063f9fb452f146100a9575b600080fd5b6100596100c7565b604051610066919061035f565b60405180910390f35b610077610155565b604051610084919061039a565b60405180910390f35b6100a760048036038101906100a2919061052a565b61015b565b005b6100b1610195565b6040516100be919061035f565b60405180910390f35b600080546100d4906105e4565b80601f0160208091040260200160405190810160405280929190818152602001828054610100906105e4565b801561014d5780601f106101225761010080835404028352916020019161014d565b820191906000526020600020905b81548152906001019060200180831161013057829003601f168201915b505050505081565b60025481565b8260009080519060200190610171929190610223565b508160019080519060200190610188929190610223565b5080600281905550505050565b600180546101a2906105e4565b80601f01602080910402602001604051908101604052809291908181526020018280546101ce906105e4565b801561021b5780601f106101f05761010080835404028352916020019161021b565b820191906000526020600020905b8154815290600101906020018083116101fe57829003601f168201915b505050505081565b82805461022f906105e4565b90600052602060002090601f0160209004810192826102515760008555610298565b82601f1061026a57805160ff1916838001178555610298565b82800160010185558215610298579182015b8281111561029757825182559160200191906001019061027c565b5b5090506102a591906102a9565b5090565b5b808211156102c25760008160009055506001016102aa565b5090565b600081519050919050565b600082825260208201905092915050565b60005b838110156103005780820151818401526020810190506102e5565b8381111561030f576000848401525b50505050565b6000601f19601f8301169050919050565b6000610331826102c6565b61033b81856102d1565b935061034b8185602086016102e2565b61035481610315565b840191505092915050565b600060208201905081810360008301526103798184610326565b905092915050565b6000819050919050565b61039481610381565b82525050565b60006020820190506103af600083018461038b565b92915050565b6000604051905090565b600080fd5b600080fd5b600080fd5b600080fd5b7f4e487b7100000000000000000000000000000000000000000000000000000000600052604160045260246000fd5b61040b82610315565b810181811067ffffffffffffffff8211171561042a576104296103d3565b5b80604052505050565b600061043d6103b5565b90506104498282610402565b919050565b600067ffffffffffffffff821115610469576104686103d3565b5b61047282610315565b9050602081019050919050565b82818337600083830152505050565b60006104a161049c8461044e565b610433565b9050828152602081018484840111156104bd576104bc6103ce565b5b6104c884828561047f565b509392505050565b600082601f8301126104e5576104e46103c9565b5b81356104f584826020860161048e565b91505092915050565b61050781610381565b811461051257600080fd5b50565b600081359050610524816104fe565b92915050565b600080600060608486031215610543576105426103bf565b5b600084013567ffffffffffffffff811115610561576105606103c4565b5b61056d868287016104d0565b935050602084013567ffffffffffffffff81111561058e5761058d6103c4565b5b61059a868287016104d0565b92505060406105ab86828701610515565b9150509250925092565b7f4e487b7100000000000000000000000000000000000000000000000000000000600052602260045260246000fd5b600060028204905060018216806105fc57607f821691505b602082108114156106105761060f6105b5565b5b5091905056fea2646970667358221220f91bd6bda29dbddee12bc29a7c6e0dcbd48f1d1e3502780eabebae21286d93a364736f6c634300080a0033",
  "immutableReferences": {},
  "source": "pragma solidity >=0.4.22 <0.9.0;\r\n    contract ProductionReceiptsContract {\r\n    string public uniqueID;\r\n\tstring public productID;\r\n\tint public lotNumber;\r\n\t\r\n    \r\n    function perform_transactions(string memory _uniqueID, string memory _productID, int _lotNumber) public{\r\n       uniqueID = _uniqueID;\r\n\t\tproductID = _productID;\r\n\t\tlotNumber = _lotNumber;\r\n\t\t\r\n    }\r\n        \r\n}\r\n",
  "sourcePath": "D:\\MAJORCODE\\ProductCounterfeiting\\ProductCounterfeiting-Truffle\\contracts\\ProductionReceiptsContract.sol",
  "compiler": {
    "name": "solc",
    "version": "0.8.10+commit.fc410830.Emscripten.clang"
  },
  "schemaVersion": "3.4.16",
  "updatedAt": "2025-05-12T08:42:59.648Z",
  "networkType": "ethereum",
  "devdoc": {
    "kind": "dev",
    "methods": {},
    "version": 1
  },
  "userdoc": {
    "kind": "user",
    "methods": {},
    "version": 1
  }
}