{
  "contractName": "ProductTrackingContract",
  "abi": [
    {
      "inputs": [],
      "name": "lotNumber",
      "outputs": [
        {
          "internalType": "int256",
          "name": "",
          "type": "int256"
        }
      ],
      "stateMutability": "view",
      "type": "function",
      "constant": true
    },
    {
      "inputs": [],
      "name": "productID",
      "outputs": [
        {
          "internalType": "string",
          "name": "",
          "type": "string"
        }
      ],
      "stateMutability": "view",
      "type": "function",
      "constant": true
    },
    {
      "inputs": [],
      "name": "productUniqueIdentifier",
      "outputs": [
        {
          "internalType": "int256",
          "name": "",
          "type": "int256"
        }
      ],
      "stateMutability": "view",
      "type": "function",
      "constant": true
    },
    {
      "inputs": [],
      "name": "uniqueID",
      "outputs": [
        {
          "internalType": "string",
          "name": "",
          "type": "string"
        }
      ],
      "stateMutability": "view",
      "type": "function",
      "constant": true
    },
    {
      "inputs": [
        {
          "internalType": "string",
          "name": "_uniqueID",
          "type": "string"
        },
        {
          "internalType": "string",
          "name": "_productID",
          "type": "string"
        },
        {
          "internalType": "int256",
          "name": "_productUniqueIdentifier",
          "type": "int256"
        },
        {
          "internalType": "int256",
          "name": "_lotNumber",
          "type": "int256"
        }
      ],
      "name": "perform_transactions",
      "outputs": [],
      "stateMutability": "nonpayable",
      "type": "function"
    }
  ],
  "bytecode": "0x608060405234801561001057600080fd5b50610697806100206000396000f3fe608060405234801561001057600080fd5b50600436106100575760003560e01c80638bc533e91461005c5780639597fe9f1461007a578063a889d73514610098578063c3d88aec146100b6578063f9fb452f146100d2575b600080fd5b6100646100f0565b6040516100719190610396565b60405180910390f35b61008261017e565b60405161008f91906103d1565b60405180910390f35b6100a0610184565b6040516100ad91906103d1565b60405180910390f35b6100d060048036038101906100cb9190610561565b61018a565b005b6100da6101cc565b6040516100e79190610396565b60405180910390f35b600080546100fd9061062f565b80601f01602080910402602001604051908101604052809291908181526020018280546101299061062f565b80156101765780601f1061014b57610100808354040283529160200191610176565b820191906000526020600020905b81548152906001019060200180831161015957829003601f168201915b505050505081565b60035481565b60025481565b83600090805190602001906101a092919061025a565b5082600190805190602001906101b792919061025a565b50816002819055508060038190555050505050565b600180546101d99061062f565b80601f01602080910402602001604051908101604052809291908181526020018280546102059061062f565b80156102525780601f1061022757610100808354040283529160200191610252565b820191906000526020600020905b81548152906001019060200180831161023557829003601f168201915b505050505081565b8280546102669061062f565b90600052602060002090601f01602090048101928261028857600085556102cf565b82601f106102a157805160ff19168380011785556102cf565b828001600101855582156102cf579182015b828111156102ce5782518255916020019190600101906102b3565b5b5090506102dc91906102e0565b5090565b5b808211156102f95760008160009055506001016102e1565b5090565b600081519050919050565b600082825260208201905092915050565b60005b8381101561033757808201518184015260208101905061031c565b83811115610346576000848401525b50505050565b6000601f19601f8301169050919050565b6000610368826102fd565b6103728185610308565b9350610382818560208601610319565b61038b8161034c565b840191505092915050565b600060208201905081810360008301526103b0818461035d565b905092915050565b6000819050919050565b6103cb816103b8565b82525050565b60006020820190506103e660008301846103c2565b92915050565b6000604051905090565b600080fd5b600080fd5b600080fd5b600080fd5b7f4e487b7100000000000000000000000000000000000000000000000000000000600052604160045260246000fd5b6104428261034c565b810181811067ffffffffffffffff821117156104615761046061040a565b5b80604052505050565b60006104746103ec565b90506104808282610439565b919050565b600067ffffffffffffffff8211156104a05761049f61040a565b5b6104a98261034c565b9050602081019050919050565b82818337600083830152505050565b60006104d86104d384610485565b61046a565b9050828152602081018484840111156104f4576104f3610405565b5b6104ff8482856104b6565b509392505050565b600082601f83011261051c5761051b610400565b5b813561052c8482602086016104c5565b91505092915050565b61053e816103b8565b811461054957600080fd5b50565b60008135905061055b81610535565b92915050565b6000806000806080858703121561057b5761057a6103f6565b5b600085013567ffffffffffffffff811115610599576105986103fb565b5b6105a587828801610507565b945050602085013567ffffffffffffffff8111156105c6576105c56103fb565b5b6105d287828801610507565b93505060406105e38782880161054c565b92505060606105f48782880161054c565b91505092959194509250565b7f4e487b7100000000000000000000000000000000000000000000000000000000600052602260045260246000fd5b6000600282049050600182168061064757607f821691505b6020821081141561065b5761065a610600565b5b5091905056fea26469706673582212204bb39b36557939417ce22d033b57cc24354e954b691ff024916d7d776f809e4764736f6c634300080a0033",
  "immutableReferences": {},
  "source": "pragma solidity >=0.4.22 <0.9.0;\r\n    contract ProductTrackingContract {\r\n    string public uniqueID;\r\n\tstring public productID;\r\n\tint public productUniqueIdentifier;\r\n\tint public lotNumber;\r\n\t\r\n    \r\n    function perform_transactions(string memory _uniqueID, string memory _productID, int _productUniqueIdentifier, int _lotNumber) public{\r\n       uniqueID = _uniqueID;\r\n\t\tproductID = _productID;\r\n\t\tproductUniqueIdentifier = _productUniqueIdentifier;\r\n\t\tlotNumber = _lotNumber;\r\n\t\t\r\n    }\r\n        \r\n}\r\n",
  "sourcePath": "D:\\MAJORCODE\\ProductCounterfeiting\\ProductCounterfeiting-Truffle\\contracts\\ProductTrackingContract.sol",
  "compiler": {
    "name": "solc",
    "version": "0.8.10+commit.fc410830.Emscripten.clang"
  },
  "schemaVersion": "3.4.16",
  "updatedAt": "2025-05-12T08:43:00.097Z",
  "networkType": "ethereum",
  "devdoc": {
    "kind": "dev",
    "methods": {},
    "version": 1
  },
  "userdoc": {
    "kind": "user",
    "methods": {},
    "version": 1
  }
}