{
  "contractName": "TransporterContract",
  "abi": [
    {
      "inputs": [],
      "name": "perform_transactions",
      "outputs": [],
      "stateMutability": "nonpayable",
      "type": "function"
    }
  ],
  "bytecode": "0x6080604052348015600f57600080fd5b50606d80601d6000396000f3fe6080604052348015600f57600080fd5b506004361060285760003560e01c8063ff0c51ba14602d575b600080fd5b60336035565b005b56fea26469706673582212206fe7917743ddc1913ca7372680d49ca22df06195af9fd8f15837a438a769a3c464736f6c634300080a0033",
  "immutableReferences": {},
  "source": "pragma solidity >=0.4.22 <0.9.0;\r\n    contract TransporterContract {\r\n    \r\n    \r\n    function perform_transactions() public{\r\n       \r\n    }\r\n        \r\n}\r\n",
  "sourcePath": "D:\\MAJORCODE\\ProductCounterfeiting\\ProductCounterfeiting-Truffle\\contracts\\TransporterContract.sol",
  "compiler": {
    "name": "solc",
    "version": "0.8.10+commit.fc410830.Emscripten.clang"
  },
  "schemaVersion": "3.4.16",
  "updatedAt": "2025-05-12T08:43:00.830Z",
  "networkType": "ethereum",
  "devdoc": {
    "kind": "dev",
    "methods": {},
    "version": 1
  },
  "userdoc": {
    "kind": "user",
    "methods": {},
    "version": 1
  }
}